:020000040020DA
:10000000503200208D022000C3922000C1922000B7
:10001000C1922000C1922000C19220000000000087
:1000200000000000000000000000000029A52000E2
:10003000C19220000000000047A520003595200057
:10004000479520004D95200053952000599520009C
:10005000000000003B95200041952000C192200047
:10006000C19220000000000000000000000000001D
:100070000000000000000000C1922000000000000D
:100080000000000000000000C1922000C19220008A
:10009000C1922000C1922000C1922000C192200094
:1000A000C1922000C1922000C1922000C192200084
:1000B000C1922000C1922000C1922000C192200074
:1000C000C1922000C1922000C1922000C192200064
:1000D000C1922000000000000000000000000000AD
:1000E0000000000000000000000000000000000010
:1000F00000000000000000000D1E20001D1E20005A
:1001000000000000000000000000000000000000EF
:1001100000000000000000000000000000000000DF
:1001200000000000000000000000000000000000CF
:1001300000000000000000000000000000000000BF
:1001400000000000000000000000000000000000AF
:10015000000000000000000000000000000000009F
:10016000000000000000000000000000000000008F
:10017000000000000000000000000000000000007F
:10018000000000000000000000000000000000006F
:10019000000000000000000000000000000000005F
:1001A000000000000000000000000000000000004F
:1001B000000000000000000000000000000000003F
:1001C000000000000000000000000000000000002F
:1001D000000000000000000000000000000000001F
:1001E000000000000000000000000000000000000F
:1001F00000000000000000000000000000000000FF
:1002000000000000000000000000000000000000EE
:1002100000000000000000000000000000000000DE
:1002200000000000000000000000000000000000CE
:1002300000000000000000000000000000000000BE
:1002400000000000000000000000000000000000AE
:10025000000000000000000000000000000000009E
:10026000000000000000000000000000000000008E
:10027000C1922000F11C2000151D200091132000C8
:10028000291E2000150F2000C192200008B5094B3F
:10029000FF221A600848094A4824E3690849121AEB
:1002A00098470848084AA3690021121A984700F0A5
:1002B00071FBFEE7B4200D4040000020ED0100205E
:1002C000F8AE2000F00100204B2A002081380128E0
:1002D0009ABF024B18780020704700BFBC16002060
:1002E00010B5038804466BB1FA2B03D000230380BA
:1002F000032010BD822907D108F0FAFF034B00202C
:100300001B689847FA232380012010BDA01E0020FF
:10031000014802F0DBB900BF4000002007B53E4BAA
:100320001B7813B94FF0FF3073E00128FAD1AC20ED
:1003300001A9022208F0EBFF0028F3D1AE200DF155
:100340000601022208F0E3FF0028EBD19DF80530FA
:100350009DF804209DF8071042EA03229DF806301C
:1003600043EA01232D49097802299CBF2C4830F823
:1003700011002C49097801B9000142435843920AFF
:100380004FEA90231ABF9902B1FBF2F111460131F5
:100390004908402905D84FF4F97050434FF4D972F9
:1003A0002FE0802905D84FF40570504340F2D12248
:1003B00027E0C02905D840F23F20504340F27B326D
:1003C0001FE0B1F5807F05D84FF41C70504340F218
:1003D000FE3216E0B1F59C7F05D840F26F10504315
:1003E0004FF4FE720DE0B1F5CD7F03D8D22050431B
:1003F000FB2206E040F29A20814205D818205043A3
:10040000122202FB130000E0002000F50050C0F3B0
:100410008F3003B05DF804FBBC160020BE16002030
:1004200098AD2000BD16002030B5812887B003911B
:1004300005D0431E032B3DD94FF0FF3418E159B3CB
:100440008D4B0020024600930621052301F050FD4C
:100450008A4B00221A600324A02305A802218DF8EC
:1004600014308DF8154008F02FFF0028E4D1292022
:1004700005A901F0D3FD0028DED19DF8143003F06A
:100480000F03A342D8D1AA2005A9012208F03FFFFB
:10049000002800F0AE80CFE7A0238DF8151005A846
:1004A00002218DF8143008F00FFF04460028C3D154
:1004B000734B42E0724B1B78002BBDD0032813D145
:1004C000704A05A81368022123F080031360A62355
:1004D0008DF8143000238DF8153008F0F5FE00304B
:1004E00018BF01204442C3E0042828D112290D4638
:1004F00001D00229A0D8A12305A802218DF814302B
:100500008DF8155008F0E0FE0446002894D1122D15
:1005100003D15D4B01221A7008E0012D0AD0022D93
:1005200004D0002D40F0A480584B06E0574B022227
:100530001A709DE0554B1D709AE01C7098E09DF874
:100540000C3001288DF815309DF80D308DF81630DF
:1005500001D1A42302E0022802D1A2238DF8143095
:1005600005A8032108F0B0FE00287FF465AFA6239C
:100570008DF8143005A8122302218DF8153008F0EB
:10058000A3FE044600287FF457AF414A4148136850
:10059000022123F08003136052F8203C23F08003F3
:1005A00042F8203C52F81C3C23F0800342F81C3CEB
:1005B00052F8183C23F0800342F8183C52F8143CDF
:1005C00023F0800342F8143C072200F02FFE32484B
:1005D000214602F063F82B4A02201368072143F0FA
:1005E00080031360042200F07BFE2C4B04221A606F
:1005F0003EE09DF8143003F0F003502B7FF41CAF65
:10060000A12005A9012208F082FE00287FF414AF82
:100610009DF814301C4A03F0100111701B4A03F0BE
:1006200003031370A4238DF8143005A8FF2321467B
:100630008DF815308DF8163008F046FE00287FF44E
:10064000FBAEA2238DF815008DF81600214605A8F3
:100650008DF8143008F038FE00287FF4EDAE08F075
:1006600047FE044600287FF4E7AE0122044B5FE713
:10067000204607B030BD00BFA0860100A01E0020AC
:10068000BC16002010B40D40BD160020BE16002080
:1006900020B40D40110320004000002000E100E0E4
:1006A000813801289ABF024B18780020704700BF9C
:1006B000BF16002000B5812889B063D1002965D01C
:1006C000384B0020024600930621052301F010FC60
:1006D000AA2002A9162208F036FE002853D19DF860
:1006E00008109DF80920304B02EB01221A819DF879
:1006F0000A109DF80B2002EB01225A819DF80C1084
:100700009DF80D2002EB01229A819DF80E109DF8B4
:100710000F2002EB0122DA819DF810109DF81120C4
:1007200002EB01221A829DF812109DF8132002EBB1
:1007300001225A829DF814109DF8152002EB012227
:100740009A829DF816109DF8172002EB0122DA829A
:100750009DF818109DF8192002EB01221A839DF8CC
:100760001A109DF81B2002EB01225A839DF81C10E1
:100770009DF81D2002EB01229A830C4A0121117081
:1007800018700BE030B14FF0FF3007E0074B084620
:10079000197003E00329F6D8034B197009B05DF80E
:1007A00004FB00BFA086010000020020BF1600204D
:1007B000F7B55C4B1B7813B94FF0FF30B0E0431E28
:1007C000012BF9D802AD002445F8044DC7B22846E4
:1007D00008F0D9FD0130EFD0534E019B718A328A67
:1007E0005B1A5343B6F91A20D913B6F91C30D2025A
:1007F0000B4492FBF3F30B4403F10800022F7360E8
:10080000C0F30F1029D03278F42301948DF8003012
:10081000032AD1D8DFE802F002080E1434238DF841
:10082000013041F25C240FE074238DF8013041F671
:10083000146409E0B4238DF8013043F2845403E0DA
:1008400046F264448DF8013001F03CFB77206946A4
:10085000022201F0FFFB10B1AEE700B260E02046DB
:1008600000F008FBF6206946032208F06CFD002822
:10087000A2D19DF801309DF800409DF8021030781B
:100880001B0203EB04431944C0F1080041FA00F4D1
:10089000284608F078FD01308ED07568F089A5F5FE
:1008A0007A6505FB05F31F13B6F90C30B6F908108D
:1008B00005FB03F2B6F914307B431B1403EB6233E0
:1008C000B6F90A20023355434CF250329B1003F51F
:1008D00000434343D80BB6F91630ED127B4305EBCA
:1008E000E32505EB81010231A4EBA1014A434EBF90
:1008F000B2FBF0F35100B1FBF0F340F6DE3248BF3B
:100900005B00181240435043084A5A43121402EB4A
:10091000204000F6CF6003EB20130A2093FBF0F099
:1009200003B0F0BDBF1600200002002043E3FFFF2C
:1009300008B500F021F8024B00221A7008BD00BF74
:10094000C0160020024A13781843107000F01CB83B
:10095000C0160020034A137823EA0000107000F04C
:1009600013B800BFC0160020024A13785840107018
:1009700000F00AB8C0160020024A136843F00F03C3
:100980001360704700B40D40014B1860704700BF02
:100990003CB00D40F7B500F007FC00F093FC00F010
:1009A0000BFC00F02DFA08F06DFE00F083FCFFF761
:1009B000BFFF022008F06FFD01F0EEFD00F0D8FB54
:1009C00000F0B6F9002000F0E7FA012000F0E4FAA8
:1009D0000020304900F0B6FB01F006FF62B60420AB
:1009E00008F059FD2C4808F0CBFD2C4808F0C8FD54
:1009F000002001F01BFF01F0A1F92948002101F0BE
:100A00004DFE01F0FBFB6846082101F021FA9DF83C
:100A100007309DF80660234C43EA06266B46224FBA
:100A200003CBFD6A2060616002204AF6CD31A84701
:100A300031460320A8471A210120A84769467B6B4D
:100A400008220B20984700F0C7FC00F0DFFC06F0FE
:100A500025FE164A236813606368536006F038FB6E
:100A60001348002101F01AFE00F04EFC002111484D
:100A700001F014FE08F0D5FD0F4808F0C8FD00F0A5
:100A80007DFB082008F007FD00F07EFB01F09CFDD7
:100A9000FAE700BFA527200003AE20001DAE20000E
:100AA000A4000020432A0020D4AC200024200020F1
:100AB000FC0000205000002090AD200070B505889B
:100AC0000446772D30D07E2D3FD0002D4DD101F042
:100AD0005BFD294B1870294B1D601D462B68284A69
:100AE000264E52F823204AB126480021C15493686B
:100AF00080209847336801333360EFE7224A137050
:100B0000772320E01F4AD256002A12DB1B4A1368C3
:100B100001331360194B1C4A1B6812789342F1DBB6
:100B20001A4B1B68002BEBD0184A00231360134AA2
:100B3000EFE7114A00201178114A52F8232001F002
:100B400085FD30B97E23238013E00B4B1B788B424D
:100B50000FD10A4B0B491A688B5C03F07F038B544F
:100B60000A4A136801331360D0E70023038003208F
:100B700070BD012070BD00BF362A00202402002075
:100B800060000020372A0020C1160020200200202B
:100B9000094B1A780023934204DA084951F82310CC
:100BA000814207D106490748CA5C62F07F02CA54F5
:100BB00001F08CBD0133EEE7C1160020600000207B
:100BC000372A00205000002008B50948402108F0CD
:100BD0008CFC02200621042200F082FB054B04223B
:100BE0001A6005480221062200F020FB012008BD02
:100BF00000B00D4000E100E0FD0B200038B50546D7
:100C000011480C4608F052FDE8B10F48102108F0D9
:100C10003BFD1DB9032C16D10C4810E0022D12D15A
:100C2000042C01D10A480AE0052C01D1094806E04C
:100C3000062C01D1084802E0072C04D10748BDE882
:100C40003840FFF7A5BF38BD28020020ACAB20001C
:100C5000CCAB2000DCAB2000BCAB2000ECAB200018
:100C600008B50948802108F040FC02200721042231
:100C700000F036FB054B04221A60054802210722CA
:100C800000F0D4FA012008BD00B00D4000E100E002
:100C9000FD0B200010B50948082108F026FC0020B3
:100CA0000321042200F01CFB054B01241C600548B5
:100CB0000021032200F0BAFA204610BD00900D403A
:100CC00000E100E0FD0B200008B50948102108F004
:100CD0000CFC04210A46022000F002FB054B042212
:100CE0001A600548022100F0A1FA012008BD00BFEA
:100CF00000B00D4000E100E0FD0B200008B5094800
:100D0000202108F0F2FB02200521042200F0E8FA7D
:100D1000054B04221A6005480221052200F086FADC
:100D2000012008BD00B00D4000E100E0FD0B2000F7
:100D30000148002108F0A8BC2802002010B5074C8B
:100D4000FF2323604FF4FA6000F094F80021302272
:100D5000062000F0E1FA0023236010BD00920D4050
:100D6000802870B51ED1104E104D3368002423F03A
:100D7000800333602B68204643F080032B600C4BCC
:100D800007211C60224600F0ABFA3368204623F0AE
:100D9000400333602B68062123F040032B600122BF
:100DA00000F09EFA002070BD20940D4000940D408C
:100DB00000920D40F8B500F06BF80F4B0024D3E91A
:100DC00000673A46B04238BF7A1C15460443C3E96F
:100DD0000045DFF828E0DEE90001821B61EB070334
:100DE00012196B41CEE9002301F038FB18B1BDE8C0
:100DF000F84001F0C3BAF8BDF0010020F80100206E
:100E00000D4B0E4AE0215A600D4A82F82310002251
:100E100007219A6019600B490B6843F001030B60CE
:100E2000094B1A60042243F80C2C012243F8082CC9
:100E30000F22DA62704700BF10E000E047E80100CF
:100E400000ED00E008200D400C000340034BD3E907
:100E50000023100A40EA0360704700BFF001002041
:100E6000034BD3E90023D00B40EA4340704700BF57
:100E7000F8010020054B18601C3B1A6842F0010283
:100E80001A601A68D207FCD4704700BF28000340DC
:100E9000074B084A196804331B681268120442EAB7
:100EA0000323054A0B43106843EA0060704700BF04
:100EB00040500D4048500D404C500D4010B5044678
:100EC000104B1B68DB07FBD572B6FFF7E1FF231A57
:100ED000062BD8BFC41D0C4B220E1A60C4F3074268
:100EE00043F8042CC4F3072243F8082CE2B243F879
:100EF0000C2C62B6054B4FF400321C60044B1A6197
:100F000010BD00BF50500D404C500D40300200202D
:100F100000E100E0054B00221A60054B4FF400325F
:100F2000C3F89021C3F8902001F0DCBB3002002010
:100F300000E100E0164A38B52C2303FB00234FF6EE
:100F4000BF72DC680546236C62649BB213F05002EA
:100F50000DD0A369DB0609D40E4B53F825301BB125
:100F60002068C0B29847F4E72368F2E738BD13F46D
:100F7000D06F0BD04FF440732363FF236360E36AA9
:100F8000E262E362236B43F00103236338BD00BFD9
:100F90000CAC2000340200202DE9F04F012885B070
:100FA000064600F2C0802C234343604AD51895F9C9
:100FB00020A005F12007BAF1000F9146C0F2B380DE
:100FC00095F92220002AC0F2AE80594A59F8033020
:100FD0001168EC680B43136051686B6895F921B098
:100FE0000B4353609168AB6895F822800B43936084
:100FF0000023C4F8C83F2B690BEBCA021A6095F8AE
:1010000023305FFA88FC01939DF80430604619464E
:101010002A7DCDF80CC0029300F06CF9029BDDF83C
:101020000CC019466046082200F05AF94FFA88F8B9
:1010300040494FEA08389DF9042058F8010001237F
:1010400003FA02F2024348F801204FEA0A3A5AF83A
:10105000010003FA0BF202434AF801205022A26376
:10106000A26B95F8240042F4D062A263022262636C
:101070004FF440722263AA696262EA69A262702236
:10108000E26242B2002A0C4614DB95F925102A4D83
:1010900041EAC20129607979120315594FB2BB4068
:1010A0002B431351002200F01BF9244A136843F428
:1010B000004313602C2303FB069393F82650203340
:1010C0006FB2002F1CDB93F807A0EDB25FFA8AF82D
:1010D0002846414601223F0300F00CF94FFA8AFAF4
:1010E0003A59012303FA0AF313433B5108222846D5
:1010F000414600F0F5F8114A136843F48043136049
:101100002C2303FB0696F268136B43F00103136371
:1011100096F828300122590903F01F0302FA03F35D
:10112000074A42F8213005B0BDE8F08F0CAC200032
:1011300028200D4020940D4004410D4030D0004047
:1011400000E100E001289CBF014B43F820107047EC
:1011500034020020012808D8044B2C2202FB003066
:10116000C3689A699206FCD4196070470CAC2000E1
:10117000014B00221A60704700500D40014B0822BD
:101180001A60704700500D40024BA0221A60502296
:101190001A60704700500D4072B6024B0B221A6065
:1011A000FEE700BF00500D40014B024A9A607047B5
:1011B00000ED00E00000200038B5164D164C2B68FD
:1011C000032023F040032B602368062123F0400313
:1011D0002360012200F084F82B68012223F08003B1
:1011E0002B602368032023F080032360072100F095
:1011F00077F80A4A0A4B1A600A4B0B4A19680A40E8
:10120000002AF9D11A685101FCD41A685201FCD5A0
:1012100038BD00BF20C40D4000C40D4001010200D4
:1012200000200D4004200D4000000101024B02EBA4
:10123000C10243F8220070473C020020F8B507467F
:101240000E46094D002405EB411547FA04F3DB0770
:10125000E1B204D555F824300BB13046984701343B
:10126000082CF2D1F8BD00BF3C0200202DE9F84364
:101270000703DFF83C8007F1804505F55925D5F8CF
:10128000186457F808404FEAC00924FA09F40146E7
:1012900046EA0400E4B2C0B2F6B204FA09F4FFF779
:1012A000CDFFC5F81C6447F80840BDE8F88300BFCF
:1012B00018970D4002480021802207F0B3BF00BFFD
:1012C0003C020020034A044B1A60044B803A1A6027
:1012D000704700BF80400D40C0020020BC020020CB
:1012E000034B01EBC0011B6843F82120704700BF8E
:1012F000C0020020034B01EBC0011B6843F8212012
:10130000704700BFBC020020024A136843F030035C
:101310001360704700700D400E2870B50BD1164B4E
:10132000164E1C6844F002051D60356825F03F0329
:1013300043F001033360124E336823F0FF031A4376
:101340001143014331600F4B1B681B06FBD50E4B4D
:101350000E4A1B6812680E2803F0FC0343EA0223BE
:1013600008BF064A9BB204BF1560034A9BB208BF80
:10137000146018B270BD00BF34000144F486084008
:1013800008700D4000700D400C700D4010700D4045
:1013900010B5074B4FF40042064CC3F89021C3F838
:1013A0009020206818B101F091F90023236010BD4E
:1013B00000E100E0C4020020064A136843F0020383
:1013C0001360536843F002035360936843F00203D1
:1013D0009360704748200D4007B5FFF7EDFF0A4BBB
:1013E0001A6842F002021A6000220192019A0F2A42
:1013F00002DC019A0132F8E71A6822F002021A6050
:1014000003B05DF804FB00BF54200D40064A13688A
:1014100023F002031360536823F0020353609368C0
:1014200023F002039360704748200D40084B93F966
:101430000020002A09DB074AED2111601160E32139
:1014400011601A7862F07F021A700120704700BFA5
:10145000C5160020388808400B4B1A689207FBD449
:101460001B685B065FBF094BED221A601A60084BD0
:101470001B6813B1054BEF221A60064A012013784E
:1014800003F07F03137070474C860840388808408B
:101490002C860840C516002038B5A0F10B04E3B235
:1014A0000F2B054613D80B4B1B6813F03F0302D0DC
:1014B000FFF7D2FF012304EB8404074A0B341460C6
:1014C0000BB1FFF7B3FF054BE8B21D7000E0FF2042
:1014D00040B238BD488608403C860840EB010020F9
:1014E00010B50B4B1B68990603D1FFF79FFF012333
:1014F00000E00023074A1268D207FBD5064A1468A9
:10150000C4F300140BB1FFF7A7FF204610BD00BFC6
:1015100048860840648608404C860840044B18689A
:1015200000F02200A0F1200358425841704700BF4C
:101530004C860840024B186800F04000704700BF1E
:101540004C86084038B50C46002900F088801028E9
:1015500000F28780DFE800F0090F1A1C233942539C
:10156000586F738585787A7C7F003F4B1B6800330A
:1015700018BF012370E03D4B05221B6803F07F0379
:101580000B3B93FBF2F30B33DBB265E0384B00E02F
:10159000384B1A68043B1B6843EA02235CE00023D3
:1015A0000B60354B354A1B6803F001030B60126872
:1015B000900644BF43F002030B60314B1B78002BB5
:1015C0004BD00B6843F0040346E02E4B00201B7801
:1015D0000860002B41D001230B6038BD2A4B1A68EC
:1015E0000023D2B2294901EBC3000079904202D80E
:1015F00051F8333030E001330E2BF3D128E0244B87
:101600001B685BB2493B27E0224B1B68990603D15C
:10161000FFF70CFF012300E000231F4A1268D207E6
:10162000FBD51E4A1568493DEDB20BB1FFF714FF1B
:101630006DB2256011E01A4B93F900300CE0194BA4
:101640001B7803F07F0307E00B2305E01A2303E078
:101650006FF0170300E007232360002038BD02204D
:1016600038BD012038BD00BF2C8608403C860840AC
:10167000CC850840D4850840008608402486084070
:10168000C4160020EA0100204086084064AC200017
:1016900058860840488608406486084060860840AE
:1016A000C3160020C216002038B505460C46134B61
:1016B0001B689B07FBD4124B93F90030002B01DB16
:1016C000FFF7B4FE0F4BEE221A60691E1A60A21CCF
:1016D00043F8102C2144022000F04AFB013C0A4947
:1016E00024012143022000F055FB022000F05CFBA6
:1016F000022000F071FB002038BD00BF4C8608407E
:10170000C51600203888084002C001C0F8B5214B3A
:1017100093F90030002B0DDBFFF7BAFB0446FFF70F
:1017200085FEFFF7B5FB6FF009031B1BC342F8D41E
:10173000012600E00026184B1B7823B9174D2B68B3
:10174000990604D405E0FFF7CBFE0028F6D102206D
:10175000F8BD134CE923236004272B689A0707D4AC
:10176000013F17F0FF0703D00620FFF783FBF4E7E4
:101770002B689B0704D4EE2323602360012403E03D
:101780002C6814F00204FBD10EB1FFF765FE204671
:10179000F8BD00BFC5160020EA0100204C860840B5
:1017A00038880840044B1A6810B142F0010201E089
:1017B00022F001021A607047008608400B280DD104
:1017C000082A0DD161B1074B083111F8012D43F8FA
:1017D000042F054A9342F8D100207047012070473A
:1017E00002207047A4850840C485084070B5304E7B
:1017F000336813F0400308D02E4D2B68DCB21B0673
:1018000005D52D4BED221A601A60002070BD042C06
:10181000F7D9023C8C42F4DCE4B2032C21D001194C
:101820000139032000F0ACFA631E24491B01032098
:10183000194300F0AFFA032000F0B6FA032000F0DD
:10184000CBFA032000F0D4FA0028FAD129681C4B07
:101850004939C9B219702B681A4D18062B70D0D5AA
:1018600006E02B6803702B6843702B688370EDE7EC
:1018700049B289B2042005F0E7FE2978032001F07F
:101880007F0105F0E1FE104B1B7873B933685A06EF
:101890000BD5074B1B681B0603D50C4800F016FF41
:1018A00003E0054BED221A601A60204670BD00BFB0
:1018B0004C860840288808403888084002C0010C3F
:1018C000C3160020C2160020C41600208400002089
:1018D0000B282DE9F84F8A4611D1082A40F0828062
:1018E00000297FD0414B01F1FF3A53F8042D0AF84B
:1018F000012F3F4A9342F8D10020BDE8F88F0C2811
:101900006DD1042A6ED100296CD03A493A480B684F
:10191000DFF8EC9023F007030B600368DFF8E4B016
:1019200043F008030360DBF80040D9F800200B689F
:10193000DFF8D4C0DFF8D48023F070030B60D8F850
:101940000050DCF80030E4B2120244EA036392B2C1
:10195000DFF8BCE01A43EBB242EA03430024DEF8AE
:10196000002044EA03060B68D5B223F0070343F0D6
:1019700001030B6003682F4643F008030360DBF8A4
:101980000000D9F800200B68120223F0700343F026
:1019900010030B60D8F80050DCF80030C1B241EA07
:1019A000036392B21A43EBB242EA0343DEF800202B
:1019B00044EA03085FFA82F9FFF76AFAB6EB080611
:1019C00067EB0907F903054641EA5641F0030B4A64
:1019D000002307F043F8281ACAF800008CE701201A
:1019E000BDE8F88F0220BDE8F88F00BFC885084029
:1019F000A885084010880840048808400048E8018D
:101A00001888084014880840208808402488084026
:101A10001C880840214B1870002834D0204B1B68CC
:101A20001B03FBD51F4B1A6842F002021A601A68AA
:101A300042F001021A601A681A495007FBD50A6879
:101A400022F001020A601968164A4907FBD411689E
:101A500041F002011160116841F0010111601A6842
:101A60005207FCD5104A136823F004031360D2F820
:101A7000A83123F00403C2F8A8310C4B4FF40052F4
:101A8000C3F890207047084A136843F004031360BA
:101A9000064B4FF400521A61704700BFC416002075
:101AA00004200D40048808408C86084000E100E0D6
:101AB00010B50C4607285CD8DFE800F0040F1B1FA8
:101AC000263C4256012903D1FFF7B0FC002010BD8F
:101AD000002950D1FFF7C0FCF8E7A1F10B030F2B51
:101AE00049D8C8B2FFF7D8FC431C0CBF0320002024
:101AF00010BD8CB2E2B2214B02E08CB2204BE2B2BC
:101B0000240A1A605C60E1E731F0070333D101F089
:101B10000100FFF747FE1B4B14F0020F1A68C4F3D5
:101B2000800014BF42F0200222F020021A60FFF76A
:101B300071FFCBE731F001001DD1134B197010BDBF
:101B400001F118031F2B16D80D231049DA0051F8A4
:101B50003300844204DC8B181A790D4B1A60B5E708
:101B600013F1FF33F1D2B1E7CCB20A4B49341C6018
:101B7000ACE7012010BD022010BD00BFC8850840A1
:101B8000D085084024860840EA01002064AC20008B
:101B90004086084058860840F8B5294F3D7815F032
:101BA00001054BD1274B01241C605C609C60A3F5B0
:101BB0009323A3F51473F8221A600922C3F8902125
:101BC000152270331A6003F59B230B2203F59E73D5
:101BD0001A60A3F59B23A3F5F07340221A601A68DC
:101BE0007F2642F020021A60FF2243F81C5CDE626E
:101BF000DA61154B1878FFF74FFC144B4FF4804215
:101C00001E60134B02201A6100F0DAF8114902201D
:101C100000F0B6F8032000F0D3F80E49032000F0DE
:101C2000A7F80D4B1878FFF7F5FE0C48294600F091
:101C300035FD3B78204623433B70F8BD0020F8BDBE
:101C4000C5160020A8200D40EB0100209486084016
:101C500000E100E028880840C4160020840000202D
:101C600038B503880446CBB140F23C42934203D0DE
:101C700000230380032038BD194B18781A4628B179
:101C80001B7873B1174B1B7858060AD5822908D1E7
:101C9000137843B1134B1A78520614D440F23C43E4
:101CA0002380012038BD05F075FC05F009FC80217A
:101CB000FFF79CFD0028EDDD80B205F0E5FB0A4B47
:101CC0001B699847E6E700221A70084B1D68FFF76A
:101CD000C3FBFFF761FFAB06E0D0FFF7A7FBDDE733
:101CE000C4160020C516002060AD200048860840BC
:101CF00008B5054B1B7813B9044800F0E7FC044B0A
:101D000000221A6008BD00BFC41600208400002015
:101D100034880840064B07481A68042A1FBF064942
:101D20000A7842F040020A7000221A6000F0CEBC2D
:101D30002C88084084000020C516002010B5094CEE
:101D400040222046002107F06DFA074B01221A605D
:101D50005C60064B4FF480425A604FF400425A6078
:101D600010BD00BF0000002004F00F4000E100E0C3
:101D700003289EBF014B000119507047000000204E
:101D800003289EBF024B03EB00104160704700BF69
:101D90000000002003289EBF024B03EB001081606F
:101DA000704700BF0000002003289FBF03490123A4
:101DB0000A6883409CBF13430B60704728F00F40B4
:101DC00003289FBF034901230A6883409CBF134334
:101DD0000B60704720F00F4003289FBF0349012389
:101DE0000A6883409CBF13430B60704714F00F4098
:101DF00003289FBF044B03EB0010806800F007002E
:101E000088BF0020704700BF00000020024B4FF049
:101E1000FF321A60704700BF04F50F40014B0122EA
:101E20001A6070474CF00F4010B5074B4FF48032EA
:101E3000064CC3F89021C3F89020206818B100F038
:101E400045FC0023236010BD00E100E0C802002033
:101E500030B5184B1A78431E3AB9174A1278122A2D
:101E600003D1164A12784B2A03D001F520112731ED
:101E700017E04A0802F12814B4F1281F04D014F81E
:101E8000015D03F8015FF7E701F520112731002319
:101E9000934205DA11F801598418E5540133F7E744
:101EA00030BD074A914204D011F8012903F8012FEF
:101EB000F7E730BD2B0028002A0028002900280061
:101EC00027002800024A136843F01003136070478C
:101ED0002000024014235843034B044A0344B3FB3D
:101EE000F0F3013B13607047FF23F4000C00024045
:101EF0002DE9F84307460E4615461C462A4ADFF8E8
:101F0000B4901368DDF8208043F001031360D9F822
:101F10000030322043F00103C9F80030FEF7AAFF79
:101F2000D9F80030214A23F00103C9F80030380302
:101F30008158012303FA06FE21EA0E01815029038C
:101F400051F802C0A3402CEA030C41F802C0203231
:101F500050F802C04CEA0E0E40F802E088580343E5
:101F60008B50384631460022FFF7BAF92846214601
:101F70000022FFF7B5F90E4B46EAC7021A6044EAA1
:101F8000C5025A60384631460B22FFF7B3F928469E
:101F900021460C22FFF7AEF9FFF794FF4046BDE85B
:101FA000F843FFF797BF00BF38200D4000940D4065
:101FB0002C410D4044200D40024B18600120FEF7DB
:101FC00059BF00BF04000240024B186800F0010036
:101FD000704700BF04000240054B1868C0B2C30739
:101FE00004D410F0120F08BF002070470020704783
:101FF0000400024008B5074B4000186099600720B4
:10200000FFF7DAFF044B1B68DB07FBD4BDE8084091
:10201000FFF7E2BF000002400400024040000A4B0C
:1020200040F0010010B5186007200C46FFF7C4FF10
:10203000064B1B68DB07FBD4FFF7CEFF10B9044B40
:102040001B68237010BD00BF000002400400024066
:10205000080002402DE9F0410F461446002A39D00D
:10206000002937D0012A04D1BDE8F0410978FFF7F3
:10207000C1BF1A4A430013600B78194D03202B602F
:10208000FFF79AFFA846174E3368D907FBD4FFF72E
:10209000A3FF18B1BDE8F041FFF79EBF0125631E05
:1020A000AB420BDD7B5D0120C8F80030FFF784FFF9
:1020B0003368DA07FCD40135EDB2F0E73C4414F89C
:1020C000013C0520C8F80030FFF776FF3368DB07D6
:1020D000FCD4DFE78020BDE8F08100BF00000240B3
:1020E00008000240040002402DE9F0410F4614466A
:1020F000002A3AD0002938D0012A03D1BDE8F041A6
:10210000FFF78CBF43001A4A43F0010313600B2012
:10211000FFF752FF174B1A68984612F0010FF9D1DA
:10212000FFF75AFFE8B9144E012533683B70631E70
:10213000AB420BDD0920FFF73FFFD8F80030DA078C
:10214000FBD433687B550135EDB2F0E70520FFF78E
:1021500033FFD8F80030DB07FBD433683C4404F885
:10216000013CBDE8F041FFF737BF8020BDE8F081BA
:10217000000002400400024008000240F8B5038855
:10218000064615462BB14A2B15D0002303800320A9
:10219000F8BD174807F0C6FA04462CB1201DA16807
:1021A00007F047FA2468F8E7124B01221A704A2315
:1021B00033800120F8BD8829FBD10D4807F0B2FA21
:1021C0000446002CF3D0231D9D420ED10848214621
:1021D00007F0B2FA084B62691F681A60A2691D46CF
:1021E0000AB1E06990472F60E1E72468E9E700BFA2
:1021F000CC020020C6160020D802002010B5064BE5
:10220000002406481C7007F08AFA2146BDE81040F9
:10221000034800F043BA00BFC6160020CC020020DD
:102220009400002070B50446E3610B4B049D1B78BD
:102230006561A26143B1094D094B2E68201D2B60D9
:1022400007F0F7F92E6000E0A1602146BDE870407C
:10225000044807F085BA00BFC6160020D802002047
:1022600094000020CC02002013B5034C2468009495
:10227000FFF7D8FF02B010BDD802002070B5094B9F
:1022800005461B783BB1084C084B26680430236098
:1022900007F0D8F926602946BDE87040044807F0E9
:1022A0005FBA00BFC6160020D802002094000020AC
:1022B000CC02002070B5094B05461B783BB1084C99
:1022C000084B26680430236007F0C5F926602946CC
:1022D000BDE87040044807F043BA00BFC6160020AE
:1022E000D802002094000020CC02002010B5084B3A
:1022F00004461B781BB1043000F0B8F801E0C3605D
:1023000003612146BDE81040024807F015BA00BF3E
:10231000C6160020CC02002010B50446FEF7A0FD32
:1023200094E80C001344C01A024B98428CBF002062
:10233000012010BDFEFFFF7F10B50E4C236813B9BE
:102340000D4A136010BDFEF781FD216891E80C0075
:102350001A44131A8A6842B192E812002144091AF9
:102360008B4228BF0B469268F5E71844024B186071
:1023700010BD00BFD0020020D4020020014800F0B0
:10238000A5B900BFA4000020F8B5038805462BB10D
:10239000592B09D0002303800320F8BD1E4A136087
:1023A00059232B800120F8BD872920D08229F7D11D
:1023B000194F00263C68002CF2D0204607F076F931
:1023C00090B1E0688821224600F040F950B9E06001
:1023D000A3680EB1B36000E03B600023A360FFF789
:1023E000ABFFE5E7FFF7CAFF2646A468E3E70A4923
:1023F0000B680BB90B60D3E7D868904201D19B689A
:10240000F7E70B6099680029CAD0C86890420ABFF4
:1024100089680B469960F5E7D002002010B50446A4
:10242000FFF7ACFFE3680B4A4BB113683BB1A34223
:1024300003D1094A1268DA6007E09B68F6E7064BA9
:102440001B68E36013681460A360BDE81040FFF7E9
:1024500073BF00BFD0020020D8020020024B1868D2
:10246000003018BF01207047D002002010B50B4A81
:1024700004461368984206D18368136008E09A689E
:10248000A24203D01346002BF9D103E0A2689A6060
:10249000FFF752FF0023A360E36010BDD0020020CD
:1024A00038B5836804460D469BB10A480460022093
:1024B000A07304F10C0098470238012801D9832D3C
:1024C00005D120462146BDE8384000F005B801237B
:1024D000A37338BDD80200202DE9F8431C4A0446F6
:1024E000156889462B4690461A4E3768A34204D099
:1024F0000BB11B68FAE7BDE8F88334B3A37BABB13B
:102500000023A37345B1AC4204D02846872122465C
:1025100007F0B2F82D68F5E7A3683BB14C4505D04C
:10252000346004F10C0083212A469847D8F8003023
:102530009C4203D12268064B05E0134623B11A687A
:10254000A242FAD122681A603760BDE8F88300BF62
:10255000DC020020D802002010B5094B00221A70BE
:10256000084B1C685CB1E37B3BB101230022A373E1
:10257000E27320468221FFF793FF2468F2E710BD43
:10258000C9160020DC020020024B1878421C1A7089
:10259000704700BFCA160020064B8A221A70064AEE
:1025A00000231370054A1370054A1360054A13602F
:1025B000704700BFCA160020C7160020C8160020AA
:1025C000DC020020D80200202DE9F0411A4D2B78C2
:1025D0000BB1FFF7C1FF194C22783AB3184E0C210A
:1025E0003378184F5943781817F80180013347683A
:1025F000806803F01F03013A3370227068B9124BF0
:102600001E689EB12B780BB1FFF7A6FF30464146FE
:102610003A4607F031F83668F3E7B8F1810F04BFA6
:102620000123837341463A4607F026F82B78207839
:102630001844BDE8F08100BFC9160020C81600206C
:10264000C7160020E0020020DC020020F0B50B4E8F
:102650003378202B0FD00A4C0C252478094F1C44CA
:1026600004F01F046C4301333D19A86039556A60BA
:1026700033700020F0BD0120F0BD00BFC81600205F
:10268000C7160020E002002038B5034C256806F08C
:10269000F3FF256038BD00BFD802002010B50A4600
:1026A00009490C68234683420DD00BB11B68FAE739
:1026B00048B1046008600121817383818121BDE8F4
:1026C0001040FFF7E1BF10BDDC02002038B1837B72
:1026D000013B012B9FBF024A0123C3731370704754
:1026E000C916002010B5084C206858B1002323609B
:1026F000816843689847236823B1BDE81040186893
:10270000FEF7DCBB10BD00BF6004002038B50588B3
:102710000446672D09D0792D2ED0002D32D1FFF738
:1027200033FF1B4B18701B4B1D601B4806F0E7FF67
:10273000431C01D167231DE00A28164B07D01A68F5
:102740007E2AF2DC511C1960144B9854EDE719688D
:1027500000254A1C1A60114A0D4B55542846197819
:10276000FFF774FF0E4B852118682A46FFF76EFFAE
:1027700020B97923238009E0852907D1054B002260
:102780001A60D2E700230380032038BD012038BD42
:10279000402A00206C040020640400204C17002014
:1027A000D80200200D2810B5014615D00B4C237817
:1027B0002BB90B4806F08FFF48B9012306E00A2821
:1027C00005D1074806F087FF08B1002323700548AC
:1027D000FFF77CFF012010BD002010BD4B1700202B
:1027E00064040020B400002008B505480549802293
:1027F00006F06AFFBDE8084003480021FFF74EBF1E
:1028000064040020CB160020B4000020054A1368A1
:1028100043F004031360044B1B68906943EA0020F3
:1028200080B2704700700D4014700D40174A136855
:1028300023F00C031360164B01221A601A68012A58
:10284000FCD1144B08221A60E322C3F8142203F5CA
:1028500005731946104B1B68DB07FBD510200023BE
:102860000E4A0138126802F0010243EA02034FEAFD
:1028700043039BB2F4D1002BF0D0094A180A03F0AD
:10288000FE0310601360EF230B60704700700D4073
:10289000A8200D4024860840648608409C86084095
:1028A00014700D402DE9FF411F4C204D04F1080329
:1028B0000FCB8DE80F0029786F4694F80780A1B1FF
:1028C0003A23A3711A4B1A88521A92B21A80A2F1B3
:1028D000280318122C312071214404F12C002C3AC9
:1028E000637106F03BFC00232B70124806F01AFFC0
:1028F000064690B1D6F804C0BCF1000F09D00C4BCD
:102900002A781B8838322C3B3846414622449BB2F9
:10291000E047304606F043FFEAE7054B2870188091
:1029200004B0BDE8F08100BF2C200020CE170020AD
:102930001820002070040020F8B52A4B2A4C1B797F
:1029400004F11806E371237E04F10805FF2B08D17A
:1029500095E80F0086E80F002846314600F0BEFAE1
:102960001BE02F46B646214A3B4603CB7345106019
:1029700051601F4602F10802F6D196E80F0085E883
:102980000F001A4B1A4D03F110062A4618685968B1
:10299000083303C2B3421546F7D1164D297899B1D1
:1029A0003A23A371144B1A88521A92B21A80A2F1D8
:1029B000280318122C3120716371104821442C3ADD
:1029C00006F0CCFB00232B702B7881222833E518EE
:1029D000E25400236B706B8006F0ABFFC04368804D
:1029E000F8BD00BFAC1E00202C200020280F0020C6
:1029F00044200020CE17002018200020582000205E
:102A000038B504460B480D4606F08CFE78B10379C4
:102A1000A34209D14379AB4204D183683BB19847C3
:102A2000002038BDFF2BF8D006F0B9FEEEE70120FC
:102A300038BD00BF740400200146014806F090BE76
:102A4000740400202DE9F74F484D81462B788846C5
:102A50009246474C43B12833E35C3A2B0BD1454AAD
:102A6000002313802B707EE0A3793A2B03D194F9D5
:102A70002830002BF3DA03F0A3FC3F4E3F4AB44664
:102A8000934606F1100E334603CB73451060516038
:102A90001E4602F10802F6D1364E2F78338804EB39
:102AA000470030339BB2B3F5A06F88BF4FF4A063EB
:102AB000338032882E4BD21B1946303A3030CDF855
:102AC00004C0009306F04AFB9DE8081060222270C3
:102AD0000022627062803A2217B183F8282000E059
:102AE0009A71274A224B1279E271228972B95A8966
:102AF00062B99A8952B9DA8942B91A8A32B95A8ABC
:102B000022B99A8A12B9DB8A002BA8D01D4B0FCBB1
:102B10008CE80F009BF80030FF2B05D1B9F1040FB2
:102B20009DD1B8F1020F9AD11449164800F0D6F998
:102B30002F78504607F12803E21804F8039082F832
:102B4000018006F0FFFE33882C37283BE0511A1233
:102B500063712B78227128331C440023638006F0B4
:102B6000E8FEC043608003B0BDE8F08FCE170020C0
:102B70002C2000201820002044200020280F0020B6
:102B8000AC1E0020342000202DE9F0411E460F46E7
:102B90001B4905460C4660230B7000234B704B808D
:102BA0003A238B71174B90461B7900F1100ECB71B5
:102BB000331D1A120A714B7101F11802134628686D
:102BC0006968083503C375451A46F7D10E482C3697
:102BD00000F1100100F082F90C4B1B782833E51846
:102BE000E75400236B8085F8018006F0A2FEC04305
:102BF000074B68801E80BDE8F04102F0EFBB00BFCC
:102C00002C200020AC1E002034200020CE170020F5
:102C10001820002008B50448FFF70EFFBDE8084063
:102C20000248FFF709BF00BFC4000020D000002009
:102C30002DE9F3410446154D00910E4690461F467E
:102C40000195234612480321202206F001FE0128A7
:102C50002B4616D12A6804F11001107020462A680C
:102C6000023250F8044B884242F8044BF9D11868FC
:102C7000089B86744361099B80F813800777836102
:102C800000E0002002B0BDE8F08100BF7C0400201D
:102C9000A81F002070B506460B4D0C4B2B602C680E
:102CA0000B4B9C420BD2237833B1A27CA01C314643
:102CB000D20806F0ABF920B120342C60EFE70020F9
:102CC00070BD012070BD00BF7C040020A81F002043
:102CD0000820002013B5084C80220346009201947E
:102CE00006480321202206F0B3FD08B9206800E061
:102CF000002002B010BD00BF80040020C41E0020D0
:102D000010B50C4A0C4B136013680C498B420DD262
:102D1000197849B1411C02D0997C814204D148F212
:102D2000FE015C888C4202D02033ECE70023184679
:102D300010BD00BF80040020C41E0020241F0020FE
:102D400037B504460F4D80230093019523460E4866
:102D50000521122206F07CFD01282B460ED12A689F
:102D600004F11001107020462A68023250F8044B1A
:102D7000884242F8044BF9D1186800E0002003B003
:102D800030BD00BF78040020481F0020F7B505467D
:102D9000204C802300930E46174601941E480321C1
:102DA00020222B4606F054FD012830D12A46236804
:102DB00005F1100118702368023352F8040B8A429F
:102DC00043F8040BF9D12068C77416B901230375C1
:102DD00005E0002303753146183006F023FC236814
:102DE0000E480121997402234370FF2200230270D0
:102DF00043808380C38003818372C17202736B7BC3
:102E00004373EB89C381FFF79BFF206800E000203C
:102E100003B0F0BD80040020C41E0020380F002045
:102E200013B5084C80220346009201940648052100
:102E3000122206F00DFD08B9206800E0002002B063
:102E400010BD00BF78040020481F002038B505469B
:102E5000C8B10D48022200244270FF230122C27231
:102E600044808480C4800481847203730370EB7B8C
:102E700043732B8AC381FFF7D3FF044A106008B164
:102E800006F00AFD2C7038BD380F002078040020B1
:102E900010B50E4B0E4C236020680E4B98420ED29C
:102EA00003784BB1037D3BB91830FFF735FA18B101
:102EB000074B1868FFF7CAFF23682033EBE700F0E1
:102EC0005FF9BDE81040044806F0BCBBC41E0020FA
:102ED00080040020241F0020082000202DE9F84352
:102EE00048F2FE030A8805469A42884621D00B78AC
:102EF000FF2B1ED01B4B0024A1461F461A4A1A6006
:102F00003E681A4A964218D233787BB1B37C012BC3
:102F10000CD148F2FE0372889A4207D04046B11C99
:102F200006F0C7FC484524BF3446814620363E6043
:102F3000E6E70120FFF7E4FE04464CB92C806C80E4
:102F4000AC80EC802C816C81AC81EC81BDE8F88395
:102F5000A31C123453F8042BA34245F8042BF9D1D7
:102F6000BDE8F88380040020C41E0020241F002038
:102F700010B5FFF74BFC0446FFF748FC054B240255
:102F80009A68A4B22044B0FBF2F302FB130000EBFA
:102F9000520010BDAC1E002073B52F4C01F036F965
:102FA00000F06AF8002160222C4806F03BF900216D
:102FB0002046F82206F036F9294B20221A70294BB8
:102FC00018221A704FF4A0632360274B4026267105
:102FD000A360FFF7CDFF42F21073236148F2FE03B6
:102FE000314640F2FF260025E06025751F4C2A4639
:102FF000238065802B46A580E580204600950195BD
:10300000FFF716FE20461A4906F04AFC294601221F
:103010002046FFF7BBFE4FF480732046E3812680F5
:103020006580A580E58025816581A581FFF788FE03
:103030004FF40073204626806580A580E5802581B9
:103040006581A581E381FFF77BFE0A480C2102B070
:10305000BDE8704006F0EDBAAC1E0020A81F0020AD
:10306000A51F0020A41F0020C0270900380F002042
:10307000242000200820002008B5044806F092FB18
:10308000BDE80840024806F04ABB00BFDC00002053
:10309000C404002038B505460A4806F043FB044640
:1030A00078B1AC4209D12146064806F045FB2146DD
:1030B000BDE83840044806F099BB204606F06FFB97
:1030C000EDE738BDC4040020DC00002038B505461B
:1030D000084806F027FB044648B1201D2946102267
:1030E00005F094FF18B1204606F059FBF3E720469F
:1030F00038BD00BFC4040020F8B505460E46FFF7F2
:10310000E5FF044640B9104806F05CFB0446C8B130
:103110000E48214606F033FB2B46251D03F1100710
:103120002A4618685968083303C2BB421546F7D1CE
:1031300036B104F11400314606F074FA002300E0C1
:10314000012323772046F8BDDC000020C4040020C2
:1031500038B50A4806F0E6FA044600255CB1251D9C
:10316000284601F087F808B1437C23B9204606F0D1
:1031700016FB0446F2E7284638BD00BFC404002011
:1031800010B50A4806F0CEFA044670B1237F43B961
:1031900004F11400FFF7C0F818B12046FFF77AFFDA
:1031A000EFE7204606F0FBFAEEE710BDC40400206E
:1031B00037B5124B124D1C782B796A79C4EB032377
:1031C00013449BB2ADF80630BDF8063005F1080196
:1031D0001844202280B206F090FBBDF8062004F1CE
:1031E0002801294492B206F088FB10B140BA80B29F
:1031F00001E04FF6FF7003B030BD00BFCE170020D6
:103200002C2000202DE9F041264F274E3D782748FD
:103210002835AB195C780223E40007349C423DDB7F
:10322000E9187218715CDFF88080012931D002D36F
:10323000632902D011E001332EE0037018461B4CC5
:1032400002F07CFFD0B13B7822782833134443440A
:103250005B7813440233237021E001F0C001802920
:1032600005D0C02905D0402913D1037006E00370B2
:1032700007E098F818200370FF2A02D10120BDE86A
:10328000F08104200221EA18FFF7DCFB0220BDE8F0
:10329000F081527802321344DBB2BFE703700020A2
:1032A000BDE8F081CE1700202C200020D41700208C
:1032B000F0B5C578124A0D44EDB2D57083780F0A87
:1032C0003B44DBB293704478BB425470067816706E
:1032D00005D2601CC0B2507008B901361670C9B270
:1032E0008D420CDA0133DBB2054993703BB94B7860
:1032F0000133DBB24B7013B90B7801330B70F0BDA7
:103300002020002010B5084C014620681430FFF73B
:10331000CFFF064A2368117819755178597591784D
:10332000D2789975DA7510BD502500202020002034
:1033300008B5FFF731FEFFF76DFC06F018FB002320
:103340000E49002221F813200133082BF8D10C4933
:10335000002311443032B2F5F07F81F82530F6D1E8
:10336000084A4FF480611180074A00211A44203333
:10337000B3F5A07F1182F7D108BD00BF3C27002024
:1033800054250020480F0020502700202DE9F0414F
:10339000124F3D7805B3DFF84C8005F12703B8F8EC
:1033A0000040A34203DB0023A8F8003013E00C4EDA
:1033B000A4F1280205F12801641BA4B206F128003B
:1033C0003144521B05F0CAFEA8F80040283C2312E5
:1033D0003371747100233B70BDE8F081CE1700207B
:1033E0002C20002018200020F8B503461D48044674
:1033F0000288013292B2B2F5FA4F28BF4FF48052E0
:1034000050BA80B20026184D77193F8A8742F0D013
:103410002036B6F5A07FF6D1228000225601AC19E5
:10342000278A47B92082618253B920461946102263
:1034300005F0F8FE0FE001320A2AEFD10020F8BDB6
:10344000274603F1100E3A4618685968083303C23C
:1034500073451746F7D1054B35441B7920462B752C
:10346000F8BD00BF480F002050270020AC1E0020F0
:103470000023064A32F81310814203D1002122F8BA
:10348000131070470133082BF3D170473C270020FD
:103490002DE9F74FA24E04283468A24F00F076823F
:1034A000A149A24DA24A03280D6015608A4615D194
:1034B00094F8253003F00F03032B08D1A38B002BC6
:1034C00040F07A869B4B08221A7000F06BBD022BED
:1034D00040F07286002305F8073CB9E302287AD150
:1034E000954A00231370954A3B801380944AD37801
:1034F0000133DBB2D37063B993780133DBB29370DD
:103500003BB953780133DBB2537013B913780133ED
:10351000137094F8253003F0FD02052A0DD194F8BC
:1035200026300133DBB2782B84F8263040F0448615
:10353000002384F8253000F03FBE002B00F03C86CD
:10354000A28B7C48002A3DD094F82620511E84F896
:103550002610002A40F0308694F82720082A04D04C
:10356000591E01290AD8052A08D1002384F82530DC
:103570008023037002F06AF800F022BD042A9CBF89
:103580000321914003F00F0394BFC9B230210132EF
:10359000013B84F8261084F82720072B00F20C86C4
:1035A000DFE813F0520308000A00C9040A06C90440
:1035B0000A06C904002248E30423037002F046F817
:1035C00000F02ABD03F00F03032B40F0F58508231C
:1035D000037000F0E7BC052811D15A4B1B681B8A09
:1035E000002B00F0E9850C3D1560544A0023138040
:1035F00033603B804F4B08220D601A70C4E115F810
:103600003C3C3C3D03F0F003602B40F0D5852B792A
:103610006A791B0239889818884200F3CD852832D0
:1036200013443B802B7AFF2B00F0C685464EAB1D22
:103630003360464C404B00221A702270AA7998469B
:10364000BAB901232370FFF7DDFD012800F0B4852E
:1036500003D3022800F0AC850BE098F8003003F1AA
:1036600028022A4432605278083303EBC20388F8F8
:1036700000303748FFF72EFB002840F0B280344876
:10368000FFF7CEFB002840F0AC802A7E304BFF2AAB
:10369000A3F1180360D048F2FE00198B81425BD081
:1036A0001989814258D079B9598969B9998959B923
:1036B000D98949B91B8A3BB9698A264B21B9998AAC
:1036C00011B9DB8A002B47D0298B224B79B9598B52
:1036D00069B9998B59B9D98B49B9198C39B9598CB0
:1036E00029B9998C19B9DB8CB3F5807F34D03B882C
:1036F000B3F5A06F04D9022000214FF4A06205E0C9
:10370000EB79012B06D800210A460320FFF79AF92E
:1037100000F04EBD0F4A013BD37100F049BD00BF20
:1037200050250020182000204C2500206820002073
:103730001C20002040250020CE1700204C27002010
:10374000D01700204825002044250020CF17002056
:10375000442000202C20002048F2FE0329899942B1
:1037600040F02A85298BA44B81B9598B71B9998B6B
:1037700061B9D98B51B9198C41B9598C31B9998C2E
:1037800021B9DB8CB3F5807F00F01685FF2A00F0AD
:1037900013859A48FFF77EFA0246002840F00C8510
:1037A00001200221B2E725D9B9F13A0F7FD02CD9F7
:1037B000B9F13B0F00F00085B9F13C0F73D12378CC
:1037C0008F4998073BD558066DD443F040030B70E2
:1037D000FFF718FD012800F0EF8433D3022800F032
:1037E000E7843268DFF848B292F80090B9F12B0F05
:1037F000D9D134E0B9F1060F00F01C81B9F1110FF5
:1038000076D0B9F1000F4ED104E0B9F12C0F00F0E1
:10381000D38448E02378D90745D4794A43F001039B
:103820001370FFF7EFFC012800F0C684D6D298F899
:10383000003003F128022A44CBF8002008E043F0CE
:103840000203C4E798F8003003F128022A443260EA
:103850005278083303EBC20388F80030C1E72378BD
:10386000590720D4664A43F00403137098F80030D7
:10387000DFF8909103F128022A44D17851B102F087
:1038800033FD0146002840F0938499F8002004207D
:103890002A323BE7CBF800205278083303EBC2030F
:1038A00089F800309DE704200121521B2EE706F025
:1038B00040F84FF6FF73984240F07E8498F800304D
:1038C0002833E85C01F064FD98F800302833EA18EA
:1038D000E85C5178FFF794F8012801BF0023494ABA
:1038E0003B8013703B88002B00F0668400F060BCC6
:1038F000FFF74CFDEB8D85F8069053B96E8D002EC9
:1039000000F05A84404B414D2B603B4BB3F828806C
:103910000BE006F014F84FF6FF73984240F04C8429
:10392000ECE7238A33B920342C602C68384B9C4256
:10393000F7D315E09E42F6D1638A0BB19845F2D1D8
:1039400023682BB963681BB9A3680BB9E3685BB143
:1039500030482146102205F059FB0028E3D103E04E
:10396000012004210022D1E63B882B49303B3B80DB
:1039700000230B6029490220294A08702949CAF806
:1039800000200A60284A138001F060FE264B1A8846
:10399000002A00F0118402F13003174C9BB23B80E7
:1039A000283B19126371194B08321B6852BA2171F6
:1039B000197DA2850022E2851A8AE17122855A8A40
:1039C00011216285A17104F118050FCB85E80F0064
:1039D00004F108002946FFF781FA144B04F13C0278
:1039E0001A6005F0ACFFC04380B208B1E085D9E3AE
:1039F0004FF6FF73E385D5E32C2000204420002000
:103A0000CF170020CE170020502700204825002087
:103A10009028002034200020502500204025002040
:103A20005C2000201C2000204C2700204C2500207A
:103A300044250020FFF7AAFC85F8069005F07CFFDE
:103A40004FF6FF739842AE4C40F0B683B4F82AB0FC
:103A5000BBF1000F00F0B083238D002B00F0AC838E
:103A6000A84EB44696F82590B9F1000F11D0328ACD
:103A70005A450ED1728A9A420BD1A3483146102280
:103A80008DE8081005F0C2FA9DE80810002800F043
:103A9000F5809E4A30369642E4D195F8352002F002
:103AA0003F02022A08D10022994931F812105945E3
:103AB00050D00132082AF7D195F83520904B5207A3
:103AC00000F17A83142283F835203C223A80502278
:103AD00083F8342093F8332093F8314093F82F0083
:103AE00083F82F2093F8322093F82E1093F830604B
:103AF00083F82E20013093F82D2083F82D4093F881
:103B00002C40C0B283F8321083F8312083F82C6047
:103B100083F8304083F8330060B90131C9B283F8CB
:103B2000321039B90132D2B283F8312012B9621C95
:103B300083F830202B8D6A8D734C2A856B8504F1B8
:103B4000100594E80F0085E80F0020462946FFF78E
:103B5000C5F912E3002421466A4A92F8250018B9F3
:103B6000302404FB01C413E0072809D13CB192F8CA
:103B7000266094F82600864288BF144600E014466A
:103B800001310A2902F13002E7D1002C00F0148340
:103B9000604A638214605C4B032284F8262084F818
:103BA0002420042284F823200FCB84E80F005A4BF2
:103BB00001201A78002622765A7884F82500627649
:103BC0009A78DB78A276E37695F82C30A08323757B
:103BD00095F82D3084F82260637595F82E3084F8BE
:103BE0002760A37595F82F30A4F810B0E375FFF7A0
:103BF00089FB95F8343003F0F002502A24D91A09D1
:103C00003346053A9200E91891F83C00E0B10128EA
:103C100001D1013316E002280FD191F83D000428AC
:103C20000BD191F83E2091F83F3043EA0223402B1C
:103C300028BF4023E383238406E0E91891F83D1070
:103C400011B10B449342DEDB10222D4B83F835205B
:103C50002B4B93F8352042F0020283F835200222E4
:103C600083F83C20042283F83D20002283F83E2084
:103C7000402283F83F203A80602242E2254B95F8AB
:103C800035101E60254B11F0040F344618709B460A
:103C900003D086F825002022E1E13B8809F00F09D6
:103CA000A3F12802164BB9F1020F93F834304FEA12
:103CB0001313A2EB83039BB23B8003D101F03F02BD
:103CC000122A05E0B9F1010F03D101F03F02022AE7
:103CD00026D00BB98B0723D0AA8DB38A9A4204D180
:103CE000074BDA8DF38A9A421AD0880740F1028294
:103CF000B9F1010FA8D0B9F1020F40F0FB81A7E79D
:103D00002C200020542500203420002034270020BF
:103D10003C27002050250020D017002040250020FF
:103D2000C90654D5B18B002951D006F11800FFF710
:103D3000BFFAB24B95F8301093F800E0B04A8E45C8
:103D400045D192F8311093F801C08C453FD192F8DB
:103D50003200997881423AD192F83320DB7893424D
:103D600035D1F37696F8273086F818E086F819C032
:103D7000B1761BBB96F8243096F8261096F82200F0
:103D8000591AA1EBD001C9B25FFA81FE1EF0800F73
:103D900096F82330084418BF4942A3EB930318BF99
:103DA0005FFA81FE03EB0E02C0B2D3B286F8233075
:103DB00003EBD00386F8220086F82430914B0122D1
:103DC0001A7096F8243086F826300023B38396F8CC
:103DD0002510DFF8309201F00F03013B072B00F2B2
:103DE000EB81DFE813F00800250083004001620149
:103DF0007C018701320199F80020824BD2070FD550
:103E0000032286F82520388840221A700022B283C7
:103E1000002800F0C48042221A70FFF773FABEE057
:103E200095F8353003F03F03022B40F0C5810BE7D6
:103E300099F80030DB074ED595F8353003F03F0395
:103E4000122B48D16E4B93F8343003F0F002502A15
:103E500024D91B09053B9B0000202A1892F83C102E
:103E6000E1B1012901D1013016E002290FD192F808
:103E70003D1004290BD192F83E1092F83F3043EAEE
:103E80000123402B28BF4023F383338406E02A1804
:103E900092F83D2012B110449842DEDB032386F8ED
:103EA000253095F82C300120337595F82D30737539
:103EB00095F82E30B37595F82F30F375FFF722FA89
:103EC0004223514A8BF800300023B3833B8088F8AB
:103ED0000030138066E020238BF8003001F0B6FB41
:103EE0004A4B00221B6883F82520E5E595F835301C
:103EF000D80725D5CA0623D4B38B002B40F05C81AC
:103F00003888013080B2FFF7FDF99BF8003043F0AC
:103F100010028BF800203A881AB13A4A43F0120393
:103F2000137001F093FB0123B383082386F8253037
:103F3000002386F827301122314B83F83520DCE04E
:103F400098060DD595F83A2095F83B3043EA0223C0
:103F5000DAF800201A44CAF800203A88D31A3B80C5
:103F6000388848B1CA0607D499F8003043F00203F4
:103F700089F80030FFF7C6F995F8362095F8373004
:103F800003EB0223328C9BB2934202D8002B18BF62
:103F90001A4699F80030F2839B0700F00D811A4B06
:103FA00000221A8001F052FB164B1A78164B02F0D1
:103FB000200000F0FF0128B100221A8084F825209B
:103FC0001422B9E702F0100000F0FF0540B119809B
:103FD0000123A383042384F8253084F82710AAE75B
:103FE0001988B1B1D60748BFA583A28B82B9E28BED
:103FF000914288BF1A801B88A3830AE020200020FA
:104000002C200020402500204C2700205025002097
:104010001A80002384F827306D4B1B68CAF80030E3
:104020006C4B1B882BB1A38B1BB13C333B801822FC
:1040300007E0694B1B789D0740F1BE803C233B8025
:104040001022664B83F8352059E099F80030DC07E0
:1040500040F1B280002386F825305F4B10221A70A1
:1040600001F0F4FAA8E0388808B1FFF74BF995F8A9
:10407000353013F001030FD099F80030D80745BF51
:10408000072386F825300623002346BF86F826300E
:10409000B38386F8253016E099F80020D1071BD5A8
:1040A000052286F82520B38386E0388808B1FFF71B
:1040B00029F995F83530DA070ED5072386F825302B
:1040C000002386F826300120FFF71CF9102389F819
:1040D000003001F0BBFA0DE03B885BB96CE099F869
:1040E0000030DB0768D5072386F82530002386F8E3
:1040F000263061E0102385F835303C233B80374B78
:10410000502283F83420237D344D85F83030637D90
:1041100005F1180685F83130A37D85F83230E37D4E
:1041200085F83330237E85F82C30637E85F82D307A
:10413000A37E85F82E30E37E85F82F30238A2B85E9
:10414000638A6B8594E80F0086E80F0005F108008C
:104150003146FEF7C3FE94F8253003F0100303F058
:10416000FF022BB1002385F8373085F8363004E0A4
:10417000402385F8362085F83730184C0623A37184
:10418000174B1B79E3713B88283B1A12637100239C
:10419000227184F83B3084F83A30238705F0CCFB59
:1041A000C04320870D4B60221A7000225A705A803B
:1041B000094B00221A7007E00A4A002313700A4ACA
:1041C0003B801370044A137003B0BDE8F08F00BF4A
:1041D0001C2000204C270020402500202C200020FF
:1041E000AC1E0020CE170020CF17002010B50446CB
:1041F00040B102F067FA044B2146BDE81040186850
:1042000003F002B910BD00BFE800002008B503F0BC
:10421000DFFA034B03491868BDE8084003F03CB8D7
:10422000E8000020ED41200070B51E460C4B04460E
:104230009DF810201868059B03F05CF8054668B1EE
:1042400020462B4604F1100250F8041B904243F81C
:10425000041BF9D16E74284602F034FA284670BD6A
:10426000E8000020024B0146186806F0E9B900BFDB
:10427000E800002070B50C4D0646286803F020F8D1
:10428000044666B9002070BD20463146102204F075
:10429000BDFE38B12146286806F09AF90446002C84
:1042A000F2D1EFE7204670BDE8000020024B014646
:1042B000186806F0ACB900BFE800002070B50546EC
:1042C00010200C4603F0DAF90849064606F0CDF94D
:1042D00058B930462946224603F018FA3046294696
:1042E0002246BDE8704002F0C3B970BDC7AE2000E1
:1042F0000C4AB82303FB0022002330B553821A4630
:10430000094CE1188D782DB11C5D844202BF002458
:104310008C70013240F24C5171338B42F0D1104617
:1043200030BD00BFE4040020E017002008B50648B7
:1043300001F01CF8054B01221A70FD2100225A7071
:104340009970DA7008BD00BF95452000D61700208F
:1043500010B513780446087A83F0020398421DD101
:10436000487A5378984219D1887A9378984215D12F
:10437000C87AD378984211D1087B137998420DD12D
:10438000487B5379984209D1887B9379984205D12B
:10439000C87BD379984201D103201BE00B890F4AD7
:1043A0006BB94B89B3F57F4F09D18B89FE2B06D1B1
:1043B0001368C989022023F8021B13600AE01368FE
:1043C00051F8080F083343F8080C486843F8040C08
:1043D00013600120A040C0B210BD00BFD004002077
:1043E00010B50F4C0220A17903F02EF9A379112BFF
:1043F00001D0062B05D1238D618D9942A8BF1946A6
:1044000008E03A2B05BF94F8281094F829300021D1
:1044100043EA01210120BDE8104003F015B900BFB7
:104420002C20002010B5084C01462378012B08D120
:10443000A01C082204F0EAFD00280CBF2046002042
:1044400010BD002010BD00BFD617002008B50146E2
:10445000102003F007F9044B04489B68002198479B
:10446000BDE80840FCF790BE80AD200071442000FC
:1044700010B508460C461146FFF720FF044B1B6899
:1044800013B19B6820469847024B1C6010BD00BFCB
:10449000E0040020DC040020F8B505460023114AA2
:1044A000712404FB0324A278B2B9617002F0F6FF14
:1044B00026460D4F0D4A3B7806F8035BC01A156877
:1044C000A0701D4402F0EAFF3A782946821A30466D
:1044D00004F0CEFDA078F8BD01330C2BDFD14FF0F6
:1044E000FF30F8BDE01700202C1D0020D404002070
:1044F0002DE9F8434FEA1219B9F10F0F80461D4616
:1045000002F00F040BD00F2C05D1B9F1000F0AD126
:104510001024274619E0B9F1000F09D004E00F2C50
:104520004FF0100900D1102440464A4604F0A0FD87
:1045300009EB04020F2A274606DC08EB09000021DC
:10454000C2F1100204F06EFEBCB1114DC7F11000B3
:104550002E6840443146224604F08AFD022C08D1E0
:10456000B9F10A0F9FBFFF2388F80B30FE2388F8AC
:104570000C3034442C60BDE8F883B9F1000F05D04D
:1045800040462946BDE8F84305F08AB9BDE8F883FE
:10459000D00400202DE9F04F8E4E8F4D002387B0C0
:1045A00033702B70044602F0F5FF02F089FF8B4A4E
:1045B0008B4B126818608DE8600099460AB1FFF7CE
:1045C0000FFF04A80CB9874900E0214606F048F81F
:1045D000854B864E1A8803933E2A40F20182D9F811
:1045E00000B0834D0BF102032B60009B06F1180015
:1045F00093F80080002308F102080BF80830FFF759
:1046000011FF20B906F10800FFF70CFF20B10BF1F4
:1046100003032B60802400E004467278317813098C
:1046200043EA0113DBB2980840EA8313DBB212F0CD
:104630000F0FDEB26E4F01F00F010CD16B484088B6
:1046400048B911B912F0F00F1FD03B6803F8016BA5
:104650003B6070261AE079B912F0F00F0CD129688E
:1046600023F03F031A43634B0A701B88033121F880
:10467000023C6826296009E05C4A2B6810681860D3
:1046800003F8046B2B60602600E07826574B9A797C
:104690000293112A08BF46F0040673075EBF3B6809
:1046A00003F8012B3B60029BDB79402B06D0FF2BEC
:1046B00007D0012B08D146F0010609E046F00206BA
:1046C00006E046F0030603E03A6802F8013B3A6070
:1046D000029A464B128982B95A8972B99A8962B98B
:1046E000DA8952B91A8A42B95A8A32B99A8A22B9EF
:1046F000DB8A13B944F0400013E03F48FFF792FE15
:104700003E4B186078B142781BF80830042043EA29
:1047100002130BF808303849394AFFF719FE60F0E8
:104720003F00C4B227E0029B30491A8948F2FE03D9
:104730009A420CD14B8B53B98B8B43B9CB8B33B98A
:10474000042008312E4AFFF703FE2043E9E73A68C8
:10475000DFF8A4C096460CF1100A634603CB53451C
:10476000CEF80000CEF804109C460EF1080EF4D1ED
:104770001F4B10321A60DFF874A09AF81830FF2B24
:1047800040F08A809AF8192044F0080E022A5FFA55
:104790008EFE37D1BAF81A30A3BBBAF81C308BBBE7
:1047A000BAF81E3073BBBAF820305BBBBAF82230BF
:1047B00043BBBAF824302BBB9AF8263013BB3B68B6
:1047C0009AF8272044F00B0003F8012BC4B23B6099
:1047D0009FE000BFD51700202C1D0020E004002022
:1047E000D4040020C7AE2000182000202C20002078
:1047F000D00400202E20002034200020C8040020F7
:10480000242000209B4B588B194688BB988B78BB83
:10481000D88BA8B9188C98B9588C88B993F824000B
:1048200070B9296844F00A00C4B2084600F8012BA8
:1048300033F8252F043121F8032C9B78837015E081
:10484000C98B8C4BA1B9198C91B993F8221079B905
:10485000296844F00900C4B2084600F8012B53F857
:10486000232F063141F8052C1B790371296050E094
:10487000814ADFF818C214680CF110082746634615
:1048800003CB4345386079609C4607F10807F6D1B1
:104890001034146074463CE00AF11800FFF7C2FDC2
:1048A000764B186050B143781BF8081044F00404AC
:1048B0000B43E4B20BF8083000200EE048F2FE0390
:1048C000BAF818209A4210D1BAF81A306BB9BAF86F
:1048D0001C3053B9BAF81E303BB90AF1180104AACA
:1048E000FFF736FD2043C4B213E0634ADFF89CC1F2
:1048F00017680CF11008BE46634603CB4345CEF85B
:104900000000CEF804109C460EF1080EF4D11037CA
:104910001760019A5749282313708B79112B53D1B3
:104920004FF2B0030A8D52BA92B222F00F0080B259
:10493000984217D14B8D5BBA23F00F031B041B0C5D
:1049400083420FD12868F32303704B8D02301A0A7B
:104950000B8D1B0A02EB031303F5AA6300F8013C5D
:10496000286028E0029B43495B8D5BBA03F47F43D8
:10497000B3F5704F09D12B68F1221A700A8DA3F894
:1049800001204A8D120ADA700CE002F47F42B2F57F
:10499000704F2B6808D1F2221A700A8D120A5A70D1
:1049A0004A8D5A80043305E0F0221A70886A053374
:1049B00043F8040C2B60324B1A882B6823F8022B27
:1049C000019A2B6030231370009BD9F800201B78CC
:1049D000D65413445C70284B1B689B1A009A1AE04B
:1049E000D9F8002041231370009B06F128051C789C
:1049F000631CDBB21344324603CAAA4218605960F2
:104A0000164603F10803F6D1009B29341C70019B64
:104A1000019A1B782833102013700DEB000102F06F
:104A200021FE184BDFF868801B68984730EA2000A9
:104A300028BF1520039BC0F17D051C88019BDFF872
:104A400054A01E78009BA21B93F800B00E4FCBEB36
:104A500005039A4240F3CD80C0F17803019302F040
:104A600045FB019B94FBF3F40134A04214DC0020CD
:104A7000D1E000BF2C200020D0040020C80400207A
:104A80005A20002054AD20002C1D0020442000207E
:104A900018200020D5170020D9F800B05F4B3C78D3
:104AA00000221A60594622460BF10400039304F0D9
:104AB00055FBB8F800205A496FEA82426FEA9242E9
:104AC000C2F307228BF80020B8F8002004348BF8DA
:104AD00001200A88E4B2501C0880110ADFF850C196
:104AE0008BF802102D1B9AF8001025F007054D4E8B
:104AF00061448BF803200BEB04002A46CDF808C074
:104B00003C70356004F0B4FA281980B202F0BCFCA5
:104B100002F0F2FA039B04461D460028A7D00DF1CF
:104B2000100B5846FFF792FC204602F01DFB204672
:104B300002F004FB2B68012B99D0043B012B96D982
:104B40009AF800A0336853441FFA83FA05233B7098
:104B5000354B1A68B8F800306FEAC3436FEAD343A5
:104B6000C3F307231370B8F800305370019B23F090
:104B7000070737602D4B1B889A454BD2D9F8002088
:104B80004FEADA0111713268CAEB03039342B8BFEE
:104B9000244AD9F80000B8BF1360009B376893F827
:104BA0000080029B3A4603EB0A01404404F060FA9D
:104BB00008EB070080B202F067FC02F09DFA07469E
:104BC00000283FF454AF5846FFF740FC384602F047
:104BD000CBFA384602F0B2FA124B1B689A442B68A3
:104BE0001FFA8AFA012B3FF442AF043B012BC1D8D4
:104BF0003DE7D9F800000E495844314404F038FA32
:104C0000B8F800005844801B80B202F03DFC04A8B4
:104C1000FFF71CFC012007B0BDE8F08FDC0400208A
:104C2000FE0F0020D8040020D4040020182000200B
:104C30002C2000202DE9F047074688461646002A1A
:104C400047D0434C0025A146238ABB4215D1638A35
:104C50009BB10F2002F012FD0146204605F005FD34
:104C600058B1ECB220463146FFF716FC002827DA8F
:104C70000027DFF8E0A0B8460DE0B834002D5DD184
:104C80000125E1E7A8450BD10AF1B80AB8F1000FF8
:104C900010D14FF001083AF8063C002BF4D0F1E7B0
:104CA000504604F003FD0028EED04046FFF720FBFD
:104CB0000744E9E7002F41DD20463146FFF7ECFBD2
:104CC00000283BDDB82303FB0595AB8A1844A88276
:104CD0003AE0204DFF2435F8063C4FFA84F97BB3C7
:104CE000284604F0E3FC10B13046FFF701FBB9F1B0
:104CF000FF3F03D135F8063C03B9F4B2012E05F1AC
:104D0000B80501D00126E6E765B26B1C16D0B823C2
:104D10005D43DFF83C900F2009EB0506A6F81280F2
:104D2000378202F0ABFC0146304605F099FC05F1F4
:104D300018004844402104F0A7FC05E0FF2403E0EC
:104D4000B9F1FF3FDAD1D8E760B2BDE8F08700BF24
:104D5000E4040020FC0400202DE9F04F0F2087B070
:104D6000A54CDFF8CCA202F089FC002602F00AFD77
:104D70008AF80060267002F0A3FBA04DA0462860D0
:104D8000042002F069FC9E4B2A6800B21860577834
:104D9000137847EA032703F0F803C02B02D0E02B77
:104DA00019D03AE090782378D278C7F30A07043311
:104DB00042EA0020394632462370FFF73BFFB0F14C
:104DC000FF3F814600F080828E4CB82303FB0044F5
:104DD0000126223424E01379D17890782278C7F321
:104DE0000A070532227041EA00201A46394600932C
:104DF000FFF720FFB0F1FF3F814600F06582814957
:104E0000B82202FB0012958A4FF0010BBD4234BF5D
:104E1000002501253446009BDFE1B1464F467A4C20
:104E2000296898F800504A5D02F0E003602B40F0DA
:104E3000B681A81C084429444D78744B5FFA85FC60
:104E40001CF0800F18601CBF0130186012F0100FAA
:104E500002F0080130D1D1B9196831F8010FA4F876
:104E600001008978E170196811F8040B1960830852
:104E700003F00F0141F060012170617803F030030D
:104E800043EA801301F00F010B43637030E01868B0
:104E90006021864621701EF8011B03304FEA910BFA
:104EA0000BF0300B01F00F014BEA01016170BEF80D
:104EB0000010186061801BE001F0FF0E99B91968BD
:104EC0000878C0F3830040F06000207011F801BB47
:104ED000A4F802E04FEA9B0000F0300040EA8B109B
:104EE0006070196004E060232370002363706380A6
:104EF00002F0040303F0FF0100912BB943490B6852
:104F000013F8010BA0710B6012F003020BBF3F4AB4
:104F10003F4B13689B5C09BF13F8011BE3711360DF
:104F2000E1716B06C5F3011233D51CF0800F1DBF74
:104F3000324998F80030096800211EBF5B18997843
:104F4000090922B904F1080B9AB9114614E0314B52
:104F50001878012805D1587888420CBF19460021DD
:104F600000E000212C4B19600029EBD1B3460D461F
:104F700032E1294B19680231284B0F209A5C0391CA
:104F8000CDF808C0019202F079FB03990346584618
:104F90000BE0234B0F209A5CCDF808C0019202F081
:104FA0006DFB2049034604F10800019AFFF7A0FABF
:104FB00005F00800DDF808C005F0030200F0FF016D
:104FC00005F00403002835D0002B6BD1164B1B884D
:104FD000ADF81430531E012B9FBF0C490B6813F81A
:104FE000010B0B60114B98BF8DF815009A5C04F112
:104FF000180005A9002353E02C1D0020D404002034
:10500000CC040020E40400202C200020D004002048
:105010009DAE2000D6170020C8040020B6AE2000A8
:10502000A1AE2000A5AE20009BAE2000A7AE2000C0
:10503000D517002053B31CF0800F1DBFA44998F86A
:10504000003009680B4618BF5B18A24918BF9D784D
:10505000087818BF05F00F03012805D14D789D424F
:105060000CBF0D46002500E000259B4B1D60002D68
:1050700000F0AE80994B10209A5C019202F0FEFA8B
:10508000A91C0346019A04F1180009E0944B102072
:105090009D5C02F0F3FA2A469249034604F1180097
:1050A000FFF726FA9AF800008F4900F128038AF8E2
:1050B0000030009B002B53D00B681A7802F0F802E6
:1050C000F02A4DD11122A2711A7802F0040502F0E3
:1050D000F302F03AEDB2032A7CD8DFE802F0020ACC
:1050E0001622B3F801200533228533F8022C62859D
:1050F0002CE0B3F801202285DA78A2F5805292B232
:10510000120242F0F002628509E05A78A2F580525C
:1051100092B2120242F0F00222855A88628504336C
:1051200014E05A7802331209A2F5756292B21202A3
:1051300042F0F002228513F8012C02F00F02A2F5D2
:10514000756292B2120242F0F00262850B6025B9DC
:105150000B6833F8022BE2850B6030308AF80000D0
:105160005B4A0B6812689B1A88F8003067B902F036
:1051700095F95E4B1B78C01A9AF80030184428380D
:1051800003122371607104E0A7F128031A1222713F
:105190006371A379112B1DD1A388A3851AE0412A3D
:1051A00040F092806A1CD2B28B18224603F128018B
:1051B00053F8040B8B4242F8040BF9D105F1290393
:1051C00088F800309AF8003028338AF8003001E07F
:1051D000B34601E0B34600252B46009302F05EF98A
:1051E00098F8002082426FD802F058F93F4A4049AF
:1051F0001278009BC2EB0008C1F8008040F2145105
:105200009AF800A0DB009BB2534443448B425BD826
:105210003CB12F4B04EB0A0019681144424603F0DD
:1052200027FF002F39D056B132484FFA89F3B824FE
:1052300004FB030308EB0A0189B29982198495B330
:10524000B8224FFA89F402FB04F32A492A48CA1803
:10525000114697822231128C03F00AFF274D05F286
:105260004C5615F8012C5AB115F8033CA34207D14E
:1052700015F8020C204B294603EBC00003F0F8FEA2
:105280007135B542EDD15FFA89F0FFF731F8BBF126
:10529000000F0BD01A4B1F800CE0BBF1000F05D0A4
:1052A000002DF7D110E0BBF1000F0DD1144BD0440D
:1052B000A3F80080134C236823B1FFF791F823680B
:1052C0005B68984700F078F807B0BDE8F08F00BF42
:1052D000D4040020D6170020C8040020B6AE200059
:1052E000A1AE2000A5AE2000D00400202C1D00207F
:1052F000D8040020E40400202C200020E317002024
:1053000018200020E004002038B50A4C71B140F2AA
:10531000E445AA420ADC084D22802860074803F0D1
:105320001DFF0420FEF7B4F800F058F80023238096
:1053300038BD00BF4C270020482500205C200020FD
:1053400008B5054804F090F920B1BDE808400248CE
:1053500004F081B908BD00BF98060020024B1B680D
:1053600003B1184718467047A8060020014B186083
:10537000704700BFA806002010B51446FEF734F8A9
:1053800018B1024BC4611B68836110BDD8020020B4
:1053900007B5074B8DF80700186828B1054B0DF1CC
:1053A00007021978FDF770F903B05DF804FB00BF40
:1053B00034270020422A002008B500220448022198
:1053C000FDF762F9034A00231380034A137008BDF6
:1053D000FC00002018200020CE17002030B52C4DF6
:1053E00085B02B88002B50D0B3F5A06F1ED8294C68
:1053F000238B6BB9638B5BB9A38B4BB9E38B3BB945
:10540000238C2BB9638C1BB9A38C0BB9E38C6BB1C8
:1054100001F014F850B1237EFF2B04D0684600F051
:1054200007FFA8B907E00020FFF798FF1A4A0023FA
:105430002B80137029E01948FDF72CFC50B1174858
:10544000FEF718FF08B928801FE0FEF70BFFEBE717
:105450006846F5E7114804F04DFA044638B9FDF7FF
:1054600077FE0028ECD10C4B288018700DE004F07A
:105470003DFA0028E4D1E36923B11B6A93F8940054
:1054800004F050FC204604F037FA05B030BD00BFF0
:10549000182000202C200020CE17002044200020BF
:1054A000F8B50388064614463BB140F24B329342AE
:1054B00022D0002303800320F8BD554A002122F8A2
:1054C00033100133082BF8D1524B1B681364FDF7DE
:1054D0005BF8514B1870FDF757F8504B402118708E
:1054E0004F4804F0A6F8FDF723FF01F01DF940F244
:1054F0004B3333800120F8BD022917D1494B1A885C
:105500001C46002AF3D0484B9A79062A05D193F815
:1055100035309B0701D5FFF713FF0120FDF7B8FFDA
:105520002388002BE3D0FFF759FFE0E716D859B9DD
:10553000002CDCD03D4B03201C60FDF7A9FFFFF7DA
:105540004DFFFFF7FDFED2E70129D0D1002CCED0D0
:10555000374B05201C60FDF79BFFE4E787292AD025
:105560008829C4D12E4B9C4203D0324B9C42BED1E1
:1055700019E0204604F078F80028F6D000252E4FD8
:105580002F4497F825304BB1254804F064F8274B99
:1055900002201F60FDF77CFFFFF720FF3035B5F5D7
:1055A000C07FECD1E1E7204604F05EF800289ED0F1
:1055B000FDF76EFCB7E7214D05F1400755F8043CB7
:1055C000A34208D135F8080CFDF752FF002325F857
:1055D000083C45F8043C0835BD42EFD1164B9A6AA9
:1055E0003033A24202BF002243F8082C03F80B2CF0
:1055F000134A9342F3D1134B9A692033A24204BF5A
:10560000002223F8102C104A9342F5D16FE700BF17
:1056100054060020D8020020412A0020422A0020FF
:1056200098060020182000202C2000205025002063
:105630004825002008200020542500205C0600207A
:10564000D4260020502700209028002010B5144BAD
:105650001B6813B103F1280402E0124A14681834DD
:10566000114A1278520611D5198A00230F4A985A06
:10567000884206D11A4452681AB10023226063603E
:1056800002E00833402BF1D1FFF75AFE206830B119
:10569000074B62681978BDE81040FCF7F5BF10BDF4
:1056A00050250020482500204025002054060020D9
:1056B000412A00202DE9F74F384A13683BB90121F0
:1056C000116037484FF4F051364AFCF7CDFDDFF852
:1056D000E4A0354E354FDFF8E080DFF8E09000249D
:1056E000DAF8000034803C60C8F80040C9F8004097
:1056F00001F0E6FD0546002D48D0DAF80000294605
:1057000004F09EFF8346284604F0F2F830B1D9F841
:1057100000300133C9F80030012300E00346584649
:10572000019300F0F9F8019B10B3D8F80020013282
:10573000C8F80020026812B1916981421ED0EBB90D
:105740004FF6FF71B6F800E0174B8E4516D08188F2
:10575000A1B1019392B1126A82B192681269904725
:10576000019B1A88824209D21880C7F800B005E070
:1057700023B94FF6FF73C7F800B033802946DAF833
:10578000000004F025FF01340546B4E7084BC4F1DE
:105790000A041C6003B0BDE8F08F00BFCC060020F7
:1057A000AC060020C157200000100020D4060020C5
:1057B000D8060020E8000020DC060020D0060020EB
:1057C00008B5FFF777FFBDE808400148FCF772BD58
:1057D000AC06002008B5FFF76DFF044B1B68072BD4
:1057E000DABF034B1868002008BD00BFD0060020B8
:1057F000D406002010B50C46FFF75CFF207E00F0B9
:1058000055F988B1C36863B1084BB0F8A410628A37
:105810001B880A44A3EB51039A4204DA044B18682C
:1058200010BD184610BD002010BD00BF00100020A4
:10583000D406002010B50C46FFF73CFF44B1E368E6
:10584000B4F8A4209B8B934214BF08230A2300E0E2
:105850000823044A12689A42BABF034B1868002012
:1058600010BD00BFD0060020D4060020022806D0BC
:10587000032807D0012808D10548FFF7BBBF04481B
:10588000FFF7D8BF0248FFF7A5BF0020704700BF51
:105890003420002070B50D46044658B18169A942F4
:1058A00008D0054E306801F0CFFD3068294601F080
:1058B000C1FDA56170BD00BF0C01002038B50D46CB
:1058C00004460021102203F0ADFC2A7D2946073250
:1058D0002046D21003F0CCFB2046BDE838400149F9
:1058E00003F0DEBF2420002008B5FEF7C3FCFEF75E
:1058F000B9FC034B01461868BDE8084004F087BEB8
:105900000C010020024B0349186801F0C5BC00BF20
:105910000C010020C59C2000024B0146186804F0D1
:1059200076BE00BF0C010020024B0146186804F04F
:1059300087BE00BF0C0100202DE9F84389460646CA
:1059400060B3006A68B3846854B3DFF85C800027F2
:10595000D8F8000001F0B4FC0546E5B12B68B3426D
:1059600012D14FF6FF73AA889A420DD0B9F1000FF9
:1059700005D13846636929469847074604E028461A
:1059800004F057F80028F4D12946D8F8000004F0B4
:105990001FFE0546E1E73846BDE8F883BDE8F88319
:1059A0002046BDE8F88300BF0C01002038B50B4C41
:1059B000054694F8951071B94FF4AA72204603F089
:1059C00031FC0123204684F8945084F8953000F08F
:1059D00019FB204638BD002038BD00BF94280020A8
:1059E00038B5054610460C4603F0B8FF014660B1D5
:1059F000064B01221868234601F07CFC28B10560A3
:105A0000638A8380637E837138BD38BD0C010020BA
:105A100010B5044604F036F9034B2146BDE81040AA
:105A2000186801F0F1BC00BF0C01002070B5094DF1
:105A30000646286801F044FC044650B123689E42A3
:105A400002D12046FFF7E4FF2868214604F0C0FD9C
:105A5000F2E770BD0C01002070B50D4B064693F8BF
:105A60009500A0B103F1100403F19005A37D23B9C3
:105A70004034AC42FAD1002070BD94F83820204662
:105A80003146D20803F0C2FA0028F1D1204670BD99
:105A900094280020044B93F8950020B1D868837DAA
:105AA000002B08BF0020704794280020064A92F877
:105AB000953033B192F8943083420CBF10460020E9
:105AC00070471846704700BF94280020034B1A8C7B
:105AD00082420CBF18460020704700BF2001002002
